:100000000C94A7000C94C4000C94C4000C94C4007D
:100010000C94C4000C94C4000C94C4000C94C40050
:100020000C94C4000C940D040C94C4000C94C400F3
:100030000C94C4000C94C4000C94C4000C94C40030
:100040000C94C4000C94C4000C94C4000C94C40020
:100050000C94C40000407A10F35A00A0724E1809A4
:100060000010A5D4E80000E87648170000E40B541F
:10007000020000CA9A3B000000E1F50500008096EE
:100080009800000040420F000000A0860100000020
:10009000102700000000E8030000000064000000DA
:1000A00000000A00000000000100000000002C76A3
:1000B000D888DC674F0823DFC1DFAE59E1B1B796BE
:1000C000E5E3E453C63AE651997696E8E6C284261B
:1000D000EB898C9B62ED407C6FFCEFBC9C9F40F2F7
:1000E000BAA56FA5F490055A2AF75C936B6CF96773
:1000F0006DC11BFCE0E40D47FEF520E6B500D0ED38
:10010000902E0300943577050080841E080000209F
:100110004E0A000000C80C333333330F986E12833D
:100120001141EF8D2114893BE65516CFFEE6DB1811
:10013000D1844B381BF77C1D901DA4BBE4242032D6
:1001400084725E228100C9F124ECA1E53D271124CF
:100150001FBECFE5D8E0DEBFCDBF10E0A0E6B0E027
:10016000E4EFF4E102C005900D92A436B107D9F78F
:1001700010E0A4E6B0E001C01D92A937B107E1F795
:100180000E9407050C94780A0C940000672B09F074
:100190009FC0009711F4D89808958130910511F40B
:1001A000D99808958230910511F4DA980895833032
:1001B000910511F4DB9808958430910511F4DC98D1
:1001C00008958530910511F4DD98089586309105E4
:1001D00011F4DE9808958730910511F4DF980895A1
:1001E0008A30910511F4C09808958B30910511F46F
:1001F000C19808958C30910511F4C29808958D30FE
:10020000910511F4C39808958E30910511F4C498A6
:1002100008958F30910511F4C598089580319105A6
:1002200011F4C69808958131910511F4C798089585
:100230008431910511F4A89808958531910511F440
:10024000A99808958631910511F4AA9808958731E7
:10025000910511F4AB9808958831910511F4AC988B
:1002600008958931910511F4AD9808958A31910569
:1002700011F4AE9808958B31910511F4AF9808955B
:100280008E31910511F4909808958F31910511F4F4
:10029000919808958032910511F4929808958132D1
:1002A000910511F4939808958232910511F4949870
:1002B00008958332910511F495980895843291053B
:1002C00011F496980895859709F09FC0979808951E
:1002D000009711F4D89A08958130910511F4D99AB4
:1002E00008958230910511F4DA9A089583309105CA
:1002F00011F4DB9A08958430910511F4DC9A089585
:100300008530910511F4DD9A08958630910511F438
:10031000DE9A08958730910511F4DF9A08958A30A6
:10032000910511F4C09A08958B30910511F4C19A8A
:1003300008958C30910511F4C29A08958D3091057D
:1003400011F4C39A08958E30910511F4C49A08955A
:100350008F30910511F4C59A08958031910511F4FB
:10036000C69A08958131910511F4C79A0895843190
:10037000910511F4A89A08958531910511F4A99A6F
:1003800008958631910511F4AA9A0895873191054F
:1003900011F4AB9A08958831910511F4AC9A08953F
:1003A0008931910511F4AD9A08958A31910511F4BE
:1003B000AE9A08958B31910511F4AF9A08958E315C
:1003C000910511F4909A08958F31910511F4919A45
:1003D00008958032910511F4929A08958132910521
:1003E00011F4939A08958232910511F4949A089524
:1003F0008332910511F4959A08958432910511F490
:10040000969A0895859709F4979A08950F931F93E4
:10041000082F182F80FF05C080E090E061E070E0B9
:1004200004C080E090E060E070E00E94C60011FF30
:1004300005C081E090E061E070E004C081E090E000
:1004400060E070E00E94C60012FF05C082E090E00C
:1004500061E070E004C082E090E060E070E00E9443
:10046000C60013FF05C083E090E061E070E004C0C7
:1004700083E090E060E070E00E94C60014FF05C0D9
:1004800088E190E061E070E004C088E190E060E025
:1004900070E00E94C60015FF05C089E190E061E0B0
:1004A00070E004C089E190E060E070E00E94C60066
:1004B00016FF05C08AE190E061E070E004C08AE1C7
:1004C00090E060E070E00E94C60007FF05C08BE18D
:1004D00090E061E070E004C08BE190E060E070E0EB
:1004E0000E94C6001F910F9108950F931F93182F1C
:1004F0008AE090E060E070E00E94C600812F0E94D8
:1005000006028CE090E061E070E00E94C60000ED21
:1005100017E0C8010197F1F78CE090E060E070E02F
:100520000E94C600C8010197F1F71F910F9108952D
:1005300081E00E9475020895813029F4862F805849
:100540000E9475020895823021F4862F80540E9403
:10055000750208958AE090E060E070E00E94C600B5
:100560008CE090E060E070E00E94C60080E49CE9CE
:100570000197F1F780E30E94750280E197E201970D
:10058000F1F780E30E94750280ED97E00197F1F7A3
:1005900080E30E94750280E29EE40197F1F788E310
:1005A0000E9475028CE00E94750281E00E94750233
:1005B00086E00E94750208950F931F93182F8AE01A
:1005C00090E061E070E00E94C600812F0E94060268
:1005D0008CE090E061E070E00E94C60000ED17E062
:1005E000C8010197F1F78CE090E060E070E00E94B4
:1005F000C600C8010197F1F71F910F910895CF939D
:10060000DF93EC0102C00E94DC0289918823D9F7B4
:10061000DF91CF9108958CE10E947502089588E1E1
:100620000E9475020895CF93DF93C82F80FF05C005
:1006300088E190E061E070E004C088E190E060E073
:1006400070E00E94C600C1FF05C089E190E061E052
:1006500070E004C089E190E060E070E00E94C600B4
:10066000C2FF05C08AE190E061E070E004C08AE169
:1006700090E060E070E00E94C600C3FF05C08BE11F
:1006800090E061E070E004C08BE190E060E070E039
:100690000E94C600DF91CF9108951F93182F8AE022
:1006A00090E060E070E00E94C600812F0E9413037A
:1006B0008CE090E061E070E00E94C60015E3812FBD
:1006C0008A95F1F78CE090E060E070E00E94C6004F
:1006D0001A95F1F71F91089580E00E944D0381E083
:1006E0000E944D0308951F93813019F4162F10585E
:1006F00004C0823059F4162F1054812F82958F70C8
:100700000E944D03812F8F700E944D031F91089509
:1007100080E00E94130380E49CE90197F1F783E0F5
:100720000E944D0380E197E20197F1F783E00E9478
:100730004D0380EF95E50197F1F783E00E944D03AB
:1007400082E00E944D0382E00E944D0388E00E94F7
:100750004D0380E00E944D038CE00E944D0380E039
:100760000E944D0386E00E944D030895FF920F936F
:100770001F93F82E8AE090E061E070E00E94C600CE
:100780008F2D82958F700E9413038CE090E061E0C2
:1007900070E00E94C60008E512E0C8010197F1F779
:1007A0008CE090E060E070E00E94C600C801019714
:1007B000F1F78F2D8F700E9413038CE090E061E0C1
:1007C00070E00E94C600C8010197F1F78CE090E04C
:1007D00060E070E00E94C600C8010197F1F71F9128
:1007E0000F91FF900895CF93DF93EC0102C00E9418
:1007F000B60389918823D9F7DF91CF91089581E0DD
:100800000E944D038CE00E944D03089581E00E94F8
:100810004D0388E00E944D0308951F920F920FB67A
:100820000F9211248F939F938091640090916500A3
:10083000019690936500809364009F918F910F9033
:100840000FBE0F901F9018959BB321E030E002C0BF
:10085000220F331F8A95E2F7922B9BBB8AE18A9580
:10086000F1F78BB3209528232BBB1DBC1CBC81E466
:100870008EBD80E288BF84E088BF80916400909143
:10088000650008B605FC03C018161906D4F71DBC90
:100890001CBC81E08EBD80E288BF84E088BF1092DE
:1008A00065001092640008B605FEFDCF66B577B509
:1008B00080E090E0609375007093760080937700FD
:1008C000909378000E94F10629E23CE349EE53E45C
:1008D0000E9487062FE73AE64CEB5FE30E9487060B
:1008E00008958FEF87BB84E088BB0E9488030E9435
:1008F0006C0388EE93E028EC30E0F9013197F1F7D2
:100900000197D9F708955D9BFECF8CB90895FC013E
:1009100004C05D9BFECF8CB9319680818823C9F7D6
:1009200008958AB188618AB980B5866880BD10BC97
:1009300083E389B908954F925F926F927F928F926D
:100940009F92AF92BF92CF92DF92EF92FF920F935E
:100950001F934B013A01290120E7C22E20E0D22E3D
:10096000B6014AE050E00E94C207C6010E94870417
:1009700080E6A82E80E0B82EC5010E948704C4013D
:10098000B6014AE050E00E94C207C6010E948704F7
:10099000C5010E948704C301B6014AE050E00E94ED
:1009A000C207C6010E948704C5010E948704C201D4
:1009B000B6014AE050E00E94C207C6010E948704C7
:1009C000C5010E948704C801B6014AE050E00E94B8
:1009D000C207C6010E948704C5010E948704C7019F
:1009E000B6014AE050E00E94C207C6010E94870497
:1009F0001F910F91FF90EF90DF90CF90BF90AF903D
:100A00009F908F907F906F905F904F9008958F92FE
:100A10009F92AF92BF92CF92DF92EF92FF920F938D
:100A20001F93DF93CF93CDB7DEB72A970FB6F89415
:100A3000DEBF0FBECDBF8FEF8ABB11BA12BA84BB27
:100A40000E9471040E949104789484E089BF1FBCC5
:100A500015BA5E010894A11CB11C38EC832E912CB0
:100A600081E090E00E9424046B017C0142E050E0B0
:100A700022E030E085010E94A10781E060E00E9451
:100A80007303C5010E94F3036091620070916300DB
:100A9000882777FD8095982F0E94F1069B01AC0175
:100AA000C701B6010E94830688238CF480916600FA
:100AB0009091670001969093670080936600A89AD2
:100AC00081E090E0909369008093680005C0A89849
:100AD000109269001092680088EB9BE0F401319756
:100AE000F1F70197D9F782E090E00E9424046B01AE
:100AF0007C0142E050E022E030E085010E94A10745
:100B000082E060E00E947303C5010E94F3036091DC
:100B1000620070916300882777FD8095982F0E946E
:100B2000F1069B01AC01C701B6010E948306882330
:100B30008CF4809166009091670001969093670015
:100B400080936600A99A81E090E090936B00809377
:100B50006A0005C0A99810926B0010926A0088EB99
:100B60009BE0F4013197F1F70197D9F783E090E02A
:100B70000E9424046B017C0142E050E022E030E05E
:100B800085010E94A10781E068E00E947303C5010E
:100B90000E94F3036091620070916300882777FDE3
:100BA0008095982F0E94F1069B01AC01C701B60108
:100BB0000E94830688238CF48091660090916700E0
:100BC00001969093670080936600AA9A81E090E076
:100BD00090936D0080936C0005C0AA9810926D00F0
:100BE00010926C0088EB9BE0F4013197F1F70197CC
:100BF000D9F784E090E00E9424046B017C0142E07C
:100C000050E022E030E085010E94A10782E068E028
:100C10000E947303C5010E94F3036091620070910A
:100C20006300882777FD8095982F0E94F1069B012D
:100C3000AC01C701B6010E94830688238CF4809121
:100C4000660090916700019690936700809366001C
:100C5000AB9A81E090E090936F0080936E0005C0A6
:100C6000AB9810926F0010926E0088EE93E0F40142
:100C70003197F1F70197D9F780916600909167005D
:100C800060E770E04AE050E00E94C20782E06DE059
:100C90000E94730380E790E00E94F30304E010E0F9
:100CA00080916600909167009801281B390BC9015B
:100CB00060E770E04AE050E00E94C20782E06EE028
:100CC0000E94730380E790E00E94F303E0906600C7
:100CD000F090670060916A0070916B0040916C0029
:100CE00050916D0020916E0030916F000E191F0918
:100CF00080916800909169000E949B0410926700A7
:100D000010926600ADCEA8D008F481E008950CD012
:100D1000DEC0D6D040F0CDD030F021F45F3F19F0E6
:100D2000BFC0511108C1C2C0E3D098F39923C9F3E1
:100D30005523B1F3951B550BBB27AA2762177307E1
:100D4000840738F09F5F5F4F220F331F441FAA1F95
:100D5000A9F333D00E2E3AF0E0E830D09150504055
:100D6000E695001CCAF729D0FE2F27D0660F771F03
:100D7000881FBB1F261737074807AB07B0E809F0E5
:100D8000BB0B802DBF01FF2793585F4F2AF09E3F7A
:100D9000510568F085C0CFC05F3FECF3983EDCF3AF
:100DA000869577956795B795F7959F5FC9F7880FF3
:100DB000911D9695879597F90895E1E0660F771F45
:100DC000881FBB1F621773078407BA0720F0621BD6
:100DD000730B840BBA0BEE1F88F7E0950895E89427
:100DE00009C097FB3EF490958095709561957F4F73
:100DF0008F4F9F4F9923A9F0F92F96E9BB27939521
:100E0000F695879577956795B795F111F8CFFAF430
:100E1000BB0F11F460FF1BC06F5F7F4F8F4F9F4F61
:100E200016C0882311F096E911C0772321F09EE8BF
:100E3000872F762F05C0662371F096E8862F70E025
:100E400060E02AF09A95660F771F881FDAF7880FFF
:100E50009695879597F90895990F0008550FAA0B55
:100E6000E0E8FEEF16161706E807F907C0F01216BD
:100E70001306E407F50798F0621B730B840B950BC0
:100E800039F40A2661F0232B242B252B21F4089515
:100E90000A2609F4A140A6958FEF811D811D0895B2
:100EA00097F99F6780E870E060E008959FEF80EC1D
:100EB000089500240A9416161706180609060895C0
:100EC00000240A9412161306140605060895092E26
:100ED0000394000C11F4882352F0BB0F40F4BF2B95
:100EE00011F460FF04C06F5F7F4F8F4F9F4F0895D5
:100EF00057FD9058440F551F59F05F3F71F04795CB
:100F0000880F97FB991F61F09F3F79F087950895AF
:100F1000121613061406551FF2CF4695F1DF08C0CE
:100F2000161617061806991FF1CF869571056105EB
:100F300008940895E894BB2766277727CB0197F993
:100F40000895EF92FF920F931F93F22FF02E47FD1B
:100F500002C0E4E001C0E4E1242F332727FD3095EF
:100F600037FF03C0309521953F4F4F2D512F0F2F45
:100F7000EE2E0E94E3078F2D912F1F910F91FF906E
:100F8000EF900895FB019F01E8944230C4F0453290
:100F9000B4F44A3029F497FB1EF4909581959F4F45
:100FA000642F77270E942D0A805D8A330CF0895DBB
:100FB0008193CB010097A1F716F45DE25193108263
:100FC000C9010C941D0AA9E0B0E0E9EEF7E00C9429
:100FD000450A6A01122FA02EBE2C2BE3201718F40D
:100FE0002CE3922E02C0902E9394AE014F5F5F4F80
:100FF00027E0092D0E944509BC018981E82EFF24C4
:10100000C70189709070019711F4ADE209C0B1FE7B
:1010100002C0ABE205C0B0FC02C0A0E001C0A0E28B
:10102000E3FE3BC0AA2311F423E001C024E0211712
:1010300010F020E002C0121B212FEB2CB4FE02C0E6
:10104000322F0AC0F601322F80E202C08193315064
:101050003323E1F7C20ED11CAA2319F0F601A193A4
:101060006F01F6013196E2FE05C09EE4D6019C9325
:1010700081E404C09EE6D6019C9381E611968C9390
:1010800091833296DF01832F90E202C09D938150BD
:101090008823E1F7E30FF11D40C0E2FE42C0AA231E
:1010A00011F423E001C024E0211710F020E002C079
:1010B000121B212FEB2CB4FE02C0922F0AC0F601A6
:1010C000922F80E202C0819391509923E1F7C20EE2
:1010D000D11CAA2319F0F601A1936F01F6013196F4
:1010E000E2FE08C089E4D6018C938EE411968C93BD
:1010F00086E407C089E6D6018C938EE611968C9320
:1011000086E681833296DF01892F20E202C02D938B
:1011100081508823E1F7E90FF11D10822EEF3FEF98
:10112000AFC0161617061CF041E050E003C0AB013B
:101130004F5F5F4FAA2019F480E090E003C08A2D32
:1011400090E0019620E030E0AA2311F021E030E0A9
:10115000240F351F280F391F812F90E028173907DA
:1011600014F020E002C0121B212F4B2D50E0CA01C9
:1011700080719070B4FC0DC0B3FC0BC0F601322F2F
:1011800040E202C0419331503323E1F7C20ED11C3B
:1011900001C0322FAA2319F0F601A1936F01892B08
:1011A00011F0132F0AC0F601132F80E302C08193C0
:1011B00011501123E1F7C30ED11C092D060FBA807F
:1011C00090E1892E912C8E209F20E4FE04C0F1E353
:1011D000BF1609F40150101614F001E003C00930E5
:1011E00008F008E09B0177FF02C020E030E0CB016F
:1011F0000196821B930BFE013196E80FF91F8EE2D8
:10120000F82E3B01601A71088A2D90E0442755277B
:10121000481B590B8FEF2F3F380719F4D601FD9269
:101220006D01621773072CF06216730614F4808147
:1012300001C080E32150304031962417350724F057
:10124000D6018D936D01E6CF2617370749F4B5E334
:10125000BB1528F0BB1621F48114910409F481E335
:10126000F6018193D601812F90E202C09C938150B8
:1012700011968823D9F7E10FF11D108220E030E0AC
:10128000C9012996EEE00C94610A283008F027E0A5
:101290003327DA01990F311D87FD916000966105B2
:1012A000710539F432602E5F3D9330E32A95E1F702
:1012B00008959F3F30F080387105610509F03C5F6B
:1012C0003C5F3D93913008F08068911DDF93CF9390
:1012D0001F930F93FF92EF92192F987F9695E92F06
:1012E00096959695E90FFF27E255FF4F99273327EB
:1012F000EE24FF24A701E70105900894079428F441
:10130000360FE71EF81E491F511D660F771F881FF5
:10131000991F0694A1F70590079428F4E70EF81E8C
:10132000491F561FC11D770F881F991F661F0694FE
:10133000A1F70590079428F4F80E491F561FC71F00
:10134000D11D880F991F661F771F0694A1F705907E
:10135000079420F4490F561FC71FD81F990F661F07
:10136000771F881F0694A9F784911095177041F094
:10137000D695C79557954795F794E7941A95C1F771
:10138000E4E5F0E06894159015913591659195919B
:1013900005907FE27395E118F10A430B560BC90BD8
:1013A000D009C0F7E10CF11E431F561FC91FD01D05
:1013B0007EF4703311F48A95E6CFE894015030F052
:1013C000080F0AF40027021708F4202F2395022F94
:1013D0007A3328F079E37D932A95E9F710C07D935D
:1013E0002A9589F6069497956795379517951794DA
:1013F000E118F10A430B560BC90BD00998F023955D
:101400007E9173957A3308F070E37C932013B8F7DC
:101410007E9170617D9330F0839571E37D9370E3ED
:101420002A95E1F71124EF90FF900F911F91CF9132
:10143000DF91992787FD90950895DC01FC01672FC6
:1014400071917723E1F7329704C07C916D9370839B
:101450006291AE17BF07C8F30895AA1BBB1B51E1E9
:1014600007C0AA1FBB1FA617B70710F0A61BB70B14
:10147000881F991F5A95A9F780959095BC01CD01B9
:1014800008952F923F924F925F926F927F928F9228
:101490009F92AF92BF92CF92DF92EF92FF920F9303
:1014A0001F93CF93DF93CDB7DEB7CA1BDB0B0FB60D
:1014B000F894DEBF0FBECDBF09942A8839884888CA
:1014C0005F846E847D848C849B84AA84B984C88460
:1014D000DF80EE80FD800C811B81AA81B981CE0F57
:1014E000D11D0FB6F894DEBF0FBECDBFED0108953C
:0414F000F894FFCF9E
:0414F4002C001400B4
:00000001FF
